{"abi":[{"type":"function","name":"getKey","inputs":[],"outputs":[{"name":"","type":"int256","internalType":"int256"}],"stateMutability":"view"},{"type":"function","name":"setKey","inputs":[{"name":"_value","type":"int256","internalType":"int256"}],"outputs":[],"stateMutability":"nonpayable"}],"bytecode":{"object":"0x6080604052348015600e575f5ffd5b506101b98061001c5f395ff3fe608060405234801561000f575f5ffd5b5060043610610034575f3560e01c80636cc664a01461003857806382678dd614610054575b5f5ffd5b610052600480360381019061004d9190610130565b610072565b005b61005c6100b6565b604051610069919061016a565b60405180910390f35b805f5f3373ffffffffffffffffffffffffffffffffffffffff1673ffffffffffffffffffffffffffffffffffffffff1681526020019081526020015f208190555050565b5f5f5f3373ffffffffffffffffffffffffffffffffffffffff1673ffffffffffffffffffffffffffffffffffffffff1681526020019081526020015f2054905090565b5f5ffd5b5f819050919050565b61010f816100fd565b8114610119575f5ffd5b50565b5f8135905061012a81610106565b92915050565b5f60208284031215610145576101446100f9565b5b5f6101528482850161011c565b91505092915050565b610164816100fd565b82525050565b5f60208201905061017d5f83018461015b565b9291505056fea264697066735822122055e6fcd524d028814c95405ce4814a5ad6e20d7f0eeb544c95ce7218d5d7d7f564736f6c634300081c0033","linkReferences":{}},"methodIdentifiers":{"getKey()":"82678dd6","setKey(int256)":"6cc664a0"},"id":20}